:10080000C292C291C290D290900000AF82AE83E4B7
:10081000FCFD7B607AEAF9F8D312088F4003A380CD
:10082000EAE4F583F582AF82AE83E4FCFD7B607A77
:10083000EAF9F8D312088F4003A380EAC290D2915C
:10084000E4F583F582A3E582B430FAE583B475F567
:10085000C291D292E4F583F582AF82AE83E4FCFDCF
:100860007B607AEAF9F8D312088F4003A380EAE4A8
:10087000F583F582AF82AE83E4FCFD7B607AEAF912
:0F088000F8D312088F4003A380EAC29202080641
:030000000208A54E
:0C08A500787FE4F6D8FD7581070208009A
:10088F00EB9FF5F0EA9E42F0E99D42F0EC6480C8E0
:06089F0064809845F02280
:00000001FF
