:1008400057656C636F6D6520746F2041415500558D
:100850006E697665727369747900636F6D70757413
:10086000657220736369656E636520666163756C8C
:0308700074790098
:100800007F3812090B7F0C12090B7F8012090B7BBA
:10081000FF7A0879401208737FC012090B7BFF7AB8
:1008200008794F1208737F0112090B7F8012090BA0
:100830007BFF7A08795A1208737FC012090B80CAAD
:060873008B088A09890AC6
:10087900E4F50BF50CF50BF50CAB08AA09A90A85EB
:100889000C82850B831208A2FF600D120901050C69
:08089900E50C70E5050B80E1A0
:0108A1002234
:0A0901008FA0D2B01208CFC2B122BD
:0A090B008FA0C2B01208CFC2B122C3
:0608CF00D2B17F0A7E0099
:1008D500E4FDFCC3ED9FEC9E5015E4FAFB0BBB0059
:0F08E500010ABA03F8BBE8F50DBD00010C80E471
:0108F40022E1
:030000000208F5FE
:0C08F500787FE4F6D8FD75810C02080045
:1008A200BB010CE58229F582E5833AF583E022500B
:1008B20006E92582F8E622BBFE06E92582F8E22255
:0D08C200E58229F582E5833AF583E493226F
:00000001FF
