:10080000C292C291C290D290900000AF82AE83E4B7
:10081000FCFD7B507AC3F9F8D31208714003A38022
:10082000EAC290D291E4F583F582A3E582B4A8FAF6
:10083000E583B461F5C291D292E4F583F582AF828B
:10084000AE83E4FCFD7B507AC3F9F8D31208714003
:1008500003A380EAC292E4F583F582AF82AE83E41B
:10086000FCFD7B507AC3F9F8D31208714098A3803D
:01087000EA9D
:030000000208876C
:0C088700787FE4F6D8FD758107020800B8
:10087100EB9FF5F0EA9E42F0E99D42F0EC6480C8FE
:0608810064809845F0229E
:00000001FF
